{
    "_format": "hh-sol-artifact-1",
    "contractName": "HookahPortalContract",
    "sourceName": "contracts/HookahPortal.sol",
    "abi": [
        {
            "inputs": [],
            "stateMutability": "payable",
            "type": "constructor"
        },
        {
            "anonymous": false,
            "inputs": [
                {
                    "indexed": true,
                    "internalType": "address",
                    "name": "from",
                    "type": "address"
                },
                {
                    "indexed": false,
                    "internalType": "uint256",
                    "name": "timestamp",
                    "type": "uint256"
                },
                {
                    "indexed": false,
                    "internalType": "string",
                    "name": "message",
                    "type": "string"
                },
                {
                    "indexed": false,
                    "internalType": "string",
                    "name": "name",
                    "type": "string"
                }
            ],
            "name": "NewHookah",
            "type": "event"
        },
        {
            "inputs": [
                {
                    "internalType": "string",
                    "name": "_message",
                    "type": "string"
                },
                {
                    "internalType": "string",
                    "name": "_name",
                    "type": "string"
                },
                {
                    "internalType": "uint256",
                    "name": "_amountPayment",
                    "type": "uint256"
                }
            ],
            "name": "buyHookah",
            "outputs": [],
            "stateMutability": "payable",
            "type": "function"
        },
        {
            "inputs": [],
            "name": "getAllHookah",
            "outputs": [
                {
                    "components": [
                        {
                            "internalType": "address",
                            "name": "giver",
                            "type": "address"
                        },
                        {
                            "internalType": "string",
                            "name": "messege",
                            "type": "string"
                        },
                        {
                            "internalType": "string",
                            "name": "name",
                            "type": "string"
                        },
                        {
                            "internalType": "uint256",
                            "name": "timestamp",
                            "type": "uint256"
                        }
                    ],
                    "internalType": "struct HookahPortalContract.Hookah[]",
                    "name": "",
                    "type": "tuple[]"
                }
            ],
            "stateMutability": "view",
            "type": "function"
        },
        {
            "inputs": [],
            "name": "getTotalHookah",
            "outputs": [
                {
                    "internalType": "uint256",
                    "name": "",
                    "type": "uint256"
                }
            ],
            "stateMutability": "view",
            "type": "function"
        },
        {
            "inputs": [],
            "name": "owner",
            "outputs": [
                {
                    "internalType": "address payable",
                    "name": "",
                    "type": "address"
                }
            ],
            "stateMutability": "view",
            "type": "function"
        }
    ],
    "bytecode": "0x608060405233600160006101000a81548173ffffffffffffffffffffffffffffffffffffffff021916908373ffffffffffffffffffffffffffffffffffffffff160217905550610d80806100546000396000f3fe60806040526004361061003f5760003560e01c80638da5cb5b146100445780639582cca11461006f578063b59688641461009a578063f11ba552146100b6575b600080fd5b34801561005057600080fd5b506100596100e1565b6040516100669190610651565b60405180910390f35b34801561007b57600080fd5b50610084610107565b6040516100919190610685565b60405180910390f35b6100b460048036038101906100af9190610826565b610110565b005b3480156100c257600080fd5b506100cb61038a565b6040516100d89190610a95565b60405180910390f35b600160009054906101000a900473ffffffffffffffffffffffffffffffffffffffff1681565b60008054905090565b600066038d7ea4c6800090508082101561015f576040517f08c379a000000000000000000000000000000000000000000000000000000000815260040161015690610b14565b60405180910390fd5b600160005461016e9190610b63565b600081905550600260405180608001604052803373ffffffffffffffffffffffffffffffffffffffff16815260200186815260200185815260200142815250908060018154018082558091505060019003906000526020600020906004020160009091909190915060008201518160000160006101000a81548173ffffffffffffffffffffffffffffffffffffffff021916908373ffffffffffffffffffffffffffffffffffffffff160217905550602082015181600101908051906020019061023992919061056d565b50604082015181600201908051906020019061025692919061056d565b506060820151816003015550506000600160009054906101000a900473ffffffffffffffffffffffffffffffffffffffff1673ffffffffffffffffffffffffffffffffffffffff16836040516102ab90610bea565b60006040518083038185875af1925050503d80600081146102e8576040519150601f19603f3d011682016040523d82523d6000602084013e6102ed565b606091505b5050905080610331576040517f08c379a000000000000000000000000000000000000000000000000000000000815260040161032890610c4b565b60405180910390fd5b3373ffffffffffffffffffffffffffffffffffffffff167f731cd6ee59d6972a54f946bf2d84371e30990614a6e3d5ced2c221ca24317c8a42878760405161037b93929190610ca4565b60405180910390a25050505050565b60606002805480602002602001604051908101604052809291908181526020016000905b8282101561056457838290600052602060002090600402016040518060800160405290816000820160009054906101000a900473ffffffffffffffffffffffffffffffffffffffff1673ffffffffffffffffffffffffffffffffffffffff1673ffffffffffffffffffffffffffffffffffffffff16815260200160018201805461043790610d18565b80601f016020809104026020016040519081016040528092919081815260200182805461046390610d18565b80156104b05780601f10610485576101008083540402835291602001916104b0565b820191906000526020600020905b81548152906001019060200180831161049357829003601f168201915b505050505081526020016002820180546104c990610d18565b80601f01602080910402602001604051908101604052809291908181526020018280546104f590610d18565b80156105425780601f1061051757610100808354040283529160200191610542565b820191906000526020600020905b81548152906001019060200180831161052557829003601f168201915b50505050508152602001600382015481525050815260200190600101906103ae565b50505050905090565b82805461057990610d18565b90600052602060002090601f01602090048101928261059b57600085556105e2565b82601f106105b457805160ff19168380011785556105e2565b828001600101855582156105e2579182015b828111156105e15782518255916020019190600101906105c6565b5b5090506105ef91906105f3565b5090565b5b8082111561060c5760008160009055506001016105f4565b5090565b600073ffffffffffffffffffffffffffffffffffffffff82169050919050565b600061063b82610610565b9050919050565b61064b81610630565b82525050565b60006020820190506106666000830184610642565b92915050565b6000819050919050565b61067f8161066c565b82525050565b600060208201905061069a6000830184610676565b92915050565b6000604051905090565b600080fd5b600080fd5b600080fd5b600080fd5b6000601f19601f8301169050919050565b7f4e487b7100000000000000000000000000000000000000000000000000000000600052604160045260246000fd5b610707826106be565b810181811067ffffffffffffffff82111715610726576107256106cf565b5b80604052505050565b60006107396106a0565b905061074582826106fe565b919050565b600067ffffffffffffffff821115610765576107646106cf565b5b61076e826106be565b9050602081019050919050565b82818337600083830152505050565b600061079d6107988461074a565b61072f565b9050828152602081018484840111156107b9576107b86106b9565b5b6107c484828561077b565b509392505050565b600082601f8301126107e1576107e06106b4565b5b81356107f184826020860161078a565b91505092915050565b6108038161066c565b811461080e57600080fd5b50565b600081359050610820816107fa565b92915050565b60008060006060848603121561083f5761083e6106aa565b5b600084013567ffffffffffffffff81111561085d5761085c6106af565b5b610869868287016107cc565b935050602084013567ffffffffffffffff81111561088a576108896106af565b5b610896868287016107cc565b92505060406108a786828701610811565b9150509250925092565b600081519050919050565b600082825260208201905092915050565b6000819050602082019050919050565b60006108e882610610565b9050919050565b6108f8816108dd565b82525050565b600081519050919050565b600082825260208201905092915050565b60005b8381101561093857808201518184015260208101905061091d565b83811115610947576000848401525b50505050565b6000610958826108fe565b6109628185610909565b935061097281856020860161091a565b61097b816106be565b840191505092915050565b61098f8161066c565b82525050565b60006080830160008301516109ad60008601826108ef565b50602083015184820360208601526109c5828261094d565b915050604083015184820360408601526109df828261094d565b91505060608301516109f46060860182610986565b508091505092915050565b6000610a0b8383610995565b905092915050565b6000602082019050919050565b6000610a2b826108b1565b610a3581856108bc565b935083602082028501610a47856108cd565b8060005b85811015610a835784840389528151610a6485826109ff565b9450610a6f83610a13565b925060208a01995050600181019050610a4b565b50829750879550505050505092915050565b60006020820190508181036000830152610aaf8184610a20565b905092915050565b600082825260208201905092915050565b7f47697665206d65206d6f72652121210000000000000000000000000000000000600082015250565b6000610afe600f83610ab7565b9150610b0982610ac8565b602082019050919050565b60006020820190508181036000830152610b2d81610af1565b9050919050565b7f4e487b7100000000000000000000000000000000000000000000000000000000600052601160045260246000fd5b6000610b6e8261066c565b9150610b798361066c565b9250827fffffffffffffffffffffffffffffffffffffffffffffffffffffffffffffffff03821115610bae57610bad610b34565b5b828201905092915050565b600081905092915050565b50565b6000610bd4600083610bb9565b9150610bdf82610bc4565b600082019050919050565b6000610bf582610bc7565b9150819050919050565b7f4661696c656420746f2073656e64206d6f6e6579206f6e20486f6f6b61683a28600082015250565b6000610c35602083610ab7565b9150610c4082610bff565b602082019050919050565b60006020820190508181036000830152610c6481610c28565b9050919050565b6000610c76826108fe565b610c808185610ab7565b9350610c9081856020860161091a565b610c99816106be565b840191505092915050565b6000606082019050610cb96000830186610676565b8181036020830152610ccb8185610c6b565b90508181036040830152610cdf8184610c6b565b9050949350505050565b7f4e487b7100000000000000000000000000000000000000000000000000000000600052602260045260246000fd5b60006002820490506001821680610d3057607f821691505b60208210811415610d4457610d43610ce9565b5b5091905056fea2646970667358221220fb231abb8f639c28cd1f65900601816f8b739eee1cfba056bb49977f9370733764736f6c63430008090033",
    "linkReferences": {},
    "deployedLinkReferences": {}
}